:020000040800F2
:10000000283D001085020008357800082B6600089E
:1000100031780008CD10000865AF0008000000002E
:10002000000000000000000000000000C501000802
:10003000AB1300080000000021020008C17B00088B
:100040009F0200089F0200089F0200089F0200080C
:100050009F0200089F0200089F0200089F020008FC
:100060009F0200089F0200089F0200089F020008EC
:10007000F1110008011200081112000821120008F5
:1000800031120008411200089F0200089F02000878
:10009000D11000089F0200089F0200089F0200087C
:1000A0009F020008BD7C00089F0200089F02000814
:1000B0009F0200089F0200089F0200089F0200089C
:1000C0009F0200089F0200089F0200089F0200088C
:1000D0009F020008418500085185000861850008DD
:1000E0009F0200089F0200089F0200089F0200086C
:1000F0009F0200089F0200089F020008511200089A
:100100009F0200089F0200089F0200089F0200084B
:10011000A57D0008B57D00089F0200089F02000829
:100120009F02000861120008711200089F02000877
:100130009F020008091500089F0200089F0200089E
:10014000E11000089F0200089F02000839780008AB
:100150009F020008811200089112000871850008B2
:100160009F0200089F0200089F0200089F020008EB
:100170009F0200089F0200089F0200080000000084
:100180009F0200088D1A0008C57D0008D57D000873
:100190009F0200089F0200089F0200089F020008BB
:1001A0009F0200089F0200089F020008DFF810D09D
:1001B00000F0AAFD0048004725210108AFF30080A8
:1001C000283D00102C4B19680868B0E8F04F80F308
:1001D0000988BFF36F8F4FF0000080F311887047DC
:1001E0000000000008480068006880F308884FF0AD
:1001F000000080F3148862B661B6BFF34F8FBFF37F
:100200006F8F00DF00BF00BF08ED00E0DFF80C00DB
:10021000016841F470010160704700BF88ED00E0A3
:10022000EFF30980BFF36F8F134B1A681EF0100FA6
:1002300008BF20ED108A20E9F04F106009B44FF09C
:10024000500080F31188BFF34F8FBFF36F8F21F001
:10025000C3FD4FF0000080F3118809BC19680868DD
:10026000B0E8F04F1EF0100F08BFB0EC108A80F31A
:100270000988BFF36F8F70472C000020EFF30580D3
:10028000704700000648804706480047FEE7FEE743
:10029000FEE7FEE7FEE7FEE7FEE7FEE7FEE7FEE736
:1002A000A97C0008AD0100082DE9F05F054600209B
:1002B00092469B4688460646814640241BE02846D7
:1002C00041464746224600F0BCFB53465A46C01AF8
:1002D000914110D311461846224600F0A3FB2D1A77
:1002E00067EB01084F4622460120002100F09AFBEF
:1002F00017EB00094E41201EA4F10104DFDC484643
:1003000031462A464346BDE8F09F0000004870474A
:100310003436020810B50446FFF7F8FF0068005DA8
:1003200000F0010010BD00000649074A086850436C
:1003300043F23902104408604008704701490860E0
:1003400070470000580200206D4EC64110B5431A98
:10035000934209D28318881803E010F8011D03F8AE
:10036000011D521EF9D210BD40EA01039B0703D0C4
:1003700009E008C9121F08C0042AFAD203E011F8E4
:10038000013B00F8013B521EF9D210BDD2B201E090
:1003900000F8012B491EFBD270470022F6E710B58A
:1003A00013460A4604461946FFF7F0FF204610BDE3
:1003B000421C10F8011B0029FBD1801A704710B5B0
:1003C000002200E0521C835C8C5CA34201D1002B14
:1003D000F8D1D8B2E1B2401A10BD30B504460020C1
:1003E000034600E05B1C934203D2E05CCD5C401B03
:1003F000F8D030BD30B505460020034600E05B1C58
:10040000934205D2EC5CC85C201A01D1002CF6D1D5
:1004100030BD00000FB400B58DB010A909900B904D
:1004200000914FF0FF300A9000200C900548069094
:10043000054807906A4609A80F9900F039FB0DB0EE
:100440005DF814FBCD0A0008EB0A00082DE9FF5FF8
:100450001D464FF0FF3BD5E9014691465F464FF000
:100460000008A9697F1C01988847296A8246884745
:100470000028F6D1BAF1FF3F0CD024F4C064002E5E
:1004800019DD600614D5BAF12B0F09D0BAF12D0F82
:100490000ED103E0584604B0BDE8F09F44F48064F8
:1004A000A9697F1C01988847761E8246002E02DDCE
:1004B000BAF1300F03D0B9F1000F26D032E0A969AC
:1004C000761E44F400747F1C019888478246002EF3
:1004D00005DDBAF1780F06D0BAF1580F03D0B9F1A3
:1004E000000F10D01EE0B9F1000F02D0B9F1100FCB
:1004F00018D1A969761E24F400747F1C01988847DE
:100500008246102002E0082000E00A20814609E02F
:1005100008FB0908A969761E44F400747F1C019841
:1005200088478246002E05DD4946504600F0ABFA6A
:100530000028EDDAE96901988847A00502D46FF038
:100540000100A8E7E00725D1600613D5600502D5B4
:10055000C8F1000000E0404629680A1D2A600968C9
:10056000220501D5087015E0220701D5088011E0A9
:1005700008600FE02868011D29600068210502D588
:1005800080F8008006E0210702D5A0F8008001E095
:10059000C0F8008038467EE72DE9FE4F804681EAAC
:1005A0000300C00F0C46009021F0004123F00045ED
:1005B000B8EB0200A94105D24046214690461C46B0
:1005C0000B46024623F00040104347D0270DC7F3E7
:1005D0000A00C3F30A510290401A019040286BDAD6
:1005E000C3F3130040F4801B0098924620B100230F
:1005F000D2EB030A63EB0B0B01985946C0F14002A2
:10060000504600F00FFA06460D4650465946019AEC
:1006100000F027FA10EB08006141002487EA11522C
:1006200084EAE7731A4340D0009A62B3019A012A20
:100630004FEA075215DC001B61EB02014FF000424C
:1006400002EA0752CDE90042001C41F58011324612
:100650002B4600F0A1FA03B0BDE8F08F40462146DA
:10066000F9E7001B61EB0201001C41F58013001843
:100670005B412018A2F5001747EB030140EAD57053
:10068000B6196D4111E06D084FEA360645EAC075AE
:100690004FEA0752001B61EB0201001C41F580117B
:1006A00049084FEA30000019514132462B4603B049
:1006B000BDE8F04F00F061BA00980122400000232D
:1006C000D0EB020263EBE073009821464FEAE0743E
:1006D000B8EB000061EB0401E9E783F000435BE75E
:1006E00081F0004158E72DE9FE4F81EA030404F050
:1006F000004421F0004100944FF0000B23F0004330
:1007000050EA01045ED052EA03045BD0C3F30A54FA
:10071000C1F30A552C44A4F2F3340194A0FB025413
:10072000C1F3130141F48011C3F3130343F48013A5
:1007300001FB024400FB034E840A970A44EA8154F9
:1007400047EA8357A4FB076802958D0A05FB0785D6
:100750004FEA932C04FB0C542705029D4FEA0658E0
:1007600047EA1637B5EB08056EEB070C870E920EBD
:1007700047EA811742EA8312A7FB0201B6EB0B019D
:1007800064EB00042B0D43EA0C335E1844EB1C5061
:10079000DA465146E7FB0201C5F313044FEA0B3377
:1007A00043EA14534FEA0432019C43EA0603A4F1DE
:1007B0000C040294009CCDE900B400F0EDF903B004
:1007C000BDE8F08F00200146F9E72DE9F04D81EA00
:1007D000030404F0004B21F0004514464FF0000ADA
:1007E00023F0004150EA050220D054EA01021DD056
:1007F000C5F30A570246C5F31303C1F31300C1F34F
:100800000A5640F4801543F48013A7EB0608101B2A
:10081000D64608F2FD3873EB050002D308F1010853
:1008200001E092185B41B8F1000F03DA00200146A5
:10083000BDE8F08D00204FF48011064684460EE09E
:10084000171B73EB050705D3121B63EB0503064368
:100850004CEA010C49084FEA300092185B4150EA1B
:100860000107EDD152EA030012D082EA040083EAC4
:100870000501084305D0101BAB4106D2012200231D
:1008800006E000224FF0004302E06FF00102531037
:100890001AEB06004CEB085110EB0A0041EB0B0180
:1008A000BDE8F04D00F069B90EB5C10F80EAE07007
:1008B0000844CA07002140F233438DE80E000A467F
:1008C0000B4600F069F903B000BD70B5C1F30A52E0
:1008D00001F000450024C1F3130140F2FF3341F45D
:1008E00080119A4201DA002070BD40F233439A42EF
:1008F000A2F2334203DC524200F0A3F800E0904041
:100900002C43F1D0404270BDC1F30A5210B5C1F37F
:10091000130140F2FF3341F480119A4201DA0020C2
:1009200010BD40F233439A42A2F2334203DC5242FA
:1009300000F087F810BD904010BD00F0004230F08C
:1009400000400AD0C10D01F56071C0F3160042EA03
:100950000151C2084007114370470020014670470B
:1009600030B5041E71F1000404DB4FF00044404236
:1009700064EB0101141E73F1000405DB1C464FF00B
:100980000043524263EB04038B4208BF824230BDF6
:1009900030B5041E71F1000404DB4FF00044404206
:1009A00064EB0101141E73F1000405DB1C464FF0DB
:1009B0000043524263EB0403994208BF904230BDAA
:1009C00001F0004330B421F0004150EA010206D0AA
:1009D0000A0DA2F56072C1F31301002A02DC30BCDB
:1009E00000207047440F44EAC104C100E01830BC45
:1009F00000EBC25000F08AB830B50B46014600202B
:100A00002022012409E021FA02F59D4205D303FAD0
:100A100002F5491B04FA02F52844151EA2F1010251
:100A2000F1DC30BD202A04DB203A00FA02F100207C
:100A300070479140C2F1200320FA03F3194390401C
:100A40007047202A04DB203A21FA02F00021704787
:100A500021FA02F3D040C2F1200291400843194626
:100A60007047202A06DBCB17203A41FA02F043EA0E
:100A7000E07306E041FA02F3D040C2F12002914057
:100A80000843194670473A2800D2303820F0200237
:100A9000412A01D3A2F13700884201D34FF0FF3041
:100AA00070470000026811441378016018467047CF
:100AB000D16004495161044911620021116111465C
:100AC00000F034B9A50A000815030008426842B1D5
:100AD000016811F8013B23B1521EC0E9001218460B
:100AE00070470121C160881E704742685AB1C368CF
:100AF000016843B983688B4205D0491E521CC0E986
:100B00000012002070474FF0FF3070470029A8BF47
:100B10007047401C490008BF20F00100704710B426
:100B2000B0FA80FC00FA0CF050EA010404BF10BCDB
:100B3000704749B1CCF1200421FA04F411FA0CF108
:100B400018BF012121430843A3EB0C01CB1D4FEA41
:100B500000614FEA102042BF002010BC704700EB3C
:100B6000C35010440029A4BF10BC7047401C49006A
:100B700008BF20F0010010BC704710B5141E73F1BF
:100B8000000408DA401C41F1000192185B411A434D
:100B900001D120F0010010BD2DE9F04D92469B4699
:100BA00011B1B1FA81F202E0B0FA80F2203290463F
:100BB000FFF738FF04460F4640EA0A0041EA0B01FE
:100BC00053465A46084313D0114653EA010019D040
:100BD000C8F140025046FFF734FF05460E46504626
:100BE00059464246FFF71EFF084305D0012004E0A6
:100BF00020463946BDE8F08D0020054346EAE07600
:100C00002C4337430A986305E40AA0EB080000224E
:100C1000FD0A44EA47540A3002D500200146E9E7BC
:100C2000010510196941DDE9084500196941BDE870
:100C3000F04DA2E72DE9F04D00231A461B1A8A4118
:100C400003DB00200146BDE8F08DC1F30A52C1F379
:100C5000130141F480154FF0000BD10702D10018A9
:100C60006D41521E0027044640F2FF11384601EB49
:100C7000620A3E468046024600204FF48011FFF78C
:100C8000E0FEC2197141BB1846EB0100B4EB030C46
:100C900075EB000C04D3E41A65EB000517460E460D
:100CA000241908F101006D4180463428E3DDF9196B
:100CB00046EB0600091BA84103D24FF0FF32134652
:100CC00001E0002213461BEB070046EB0A51BDE88A
:100CD000F04DFFF752BFC1F30A52C1F3130140F2C6
:100CE000FF3341F480119A4202DA00200146704736
:100CF00040F233439A42A2F2334202DC5242FFF7FF
:100D0000A0BEFFF78FBE0000064C074D06E0E0686E
:100D100040F0010394E8070098471034AC42F6D342
:100D2000FFF748FA003B0208403B02082DE9F34F69
:100D30008BB04FF0000801F10C000C464FF0010B96
:100D400046460DF1080A0190626901210198904719
:100D5000051E2DD0252D2CD0216A8847C0B162698F
:100D6000012101989047216A88470028F7D1411E48
:100D700062690198904700E0761CA1690B9888474A
:100D8000216A88470028F7D1E1690B988847DBE79B
:100D9000A1690B9888470746A84201D1761CD3E782
:100DA000E1690B9888477F1C02D1B8F1000F6FD022
:100DB00047E1002762693D463946019890472A2855
:100DC00004D162690121019890470125DFF88892DA
:100DD0006269012101989047A0F130010A290AD2E5
:100DE0004F45E5DC07EB870100EB4107303FDFD4DF
:100DF00045F01005ECE7E90601D46FF000476C28D8
:100E00000AD04C2814D0682815D06A280DD0742830
:100E10001CD07A281AD01DE0626901210198904700
:100E20006C2802D045F0040514E045F002050DE001
:100E300045F020050AE06269012101989047682881
:100E400002D045F0080505E045F40065626901211E
:100E500001989047C4E9015765283DD019DC58280E
:100E60007AD00CDC452837D004DC252826D0412850
:100E700031D131E046282FD047282CD12CE05B28F7
:100E800077D0612828D063287CD0642823D15AE009
:100E9000D1E06F2848D008DC66281DD067281BD019
:100EA000692821D06E2816D127E0702845D07328F4
:100EB00068D0752847D078280DD14DE0A1690B98EE
:100EC0008847054625283FF469AFE1690B988847B4
:100ED0006D1C3FF46AAFB4E023466A466FF0010030
:100EE0000B99AFF300809FE045F040006060A807D9
:100EF00023464FF0000236D43EE0E8077FF447AFC8
:100F00002068011D21600068290501D506701BE7D6
:100F1000290701D5068017E7A90703D5F117C0E90E
:100F2000006111E706600FE745F040006060A80728
:100F300023464FF0080216D41EE040F60E0125EAC3
:100F40000100606016E045F040006060A80723469D
:100F50004FF00A0207D40FE045F040006060A80798
:100F600008D5234610226FF001000B99AFF30080E3
:100F70005AE007E0234610226FF001000B99FFF7BB
:100F800065FA51E04FF000094F464B46632802D006
:100F90005B2807D041E02079C00601D40120A06081
:100FA00001273AE062690121019890475E2805D146
:100FB0004FF001096269494601989047216939B9A2
:100FC00000210A46534643F82120491C0829FADB30
:100FD000B0B3216969B9C11700EBD16253110AEBB3
:100FE000830122F01F02821A01200B689040034304
:100FF0000B6062690121019890475D28E8D1B9F141
:10100000000F09D00020514651F82020D24341F86A
:101010002020401C0828F7DB02AB224600976FF027
:1010200001000B99AFF3008000280CDA401C08D1B6
:10103000BBF1000F05D04FF0FF300DB0BDE8F08FD1
:10104000FFE74046F9E7E90701D108F10108064446
:101050004FF0000B78E60000CCCCCC0C0EB540F283
:10106000334102910021CDE900110A460B46FFF7FA
:1010700093FD03B000BD70B58C1810F8015B15F03E
:10108000070301D110F8013B2A1106D110F8012BFA
:1010900003E010F8016B01F8016B5B1EF9D12B071F
:1010A00005D40023521E0DD401F8013BFAE710F8D5
:1010B000013BCB1A921C03E013F8015B01F8015BC2
:1010C000521EF9D5A142D8D3002070BD00BFFEE763
:1010D00010B5024800F062FF10BD0000640200205D
:1010E00010B5024800F05AFF10BD00008C0200202D
:1010F0000346042B15D007DC7BB1012B0ED0022B4D
:101100000DD0032B12D10BE0202B0BD0212B0AD0BA
:10111000222B09D0232B09D107E008E007E006E0E5
:1011200005E004E003E002E001E000E000BF00BFF2
:10113000002070470020704710B500220449054880
:1011400007F0B9FC0449034807F0A6FC002010BDD5
:1011500074130010FC020020740F001070B50446D8
:101160000D462146064807F097FC054807F060FC4D
:1011700002200449087028684860002070BD000003
:10118000FC0200209818022010B503460C460021EE
:10119000084610BD2DE9F04104460D46002742F2F5
:1011A00010780F48D0F8BC6200BF4046411E1FFABD
:1011B00081F80A2803DDD6F814020028F5D1D6F804
:1011C000140210B10120BDE8F0812A4621460448EE
:1011D00007F071FC024807F021FD07463846F2E7A8
:1011E000FC02002000BF642013F004FBFBE70000BA
:1011F00010B5024801F02CFA10BD0000F40D0010EB
:1012000010B5024801F024FA10BD0000540B001084
:1012100010B5024801F01CFA10BD0000140C0010BB
:1012200010B5024801F014FA10BD0000540E001071
:1012300010B5024801F00CFA10BD0000940D00102A
:1012400010B5024801F004FA10BD0000740C001043
:1012500010B5024801F0FCF910BD0000B40B0010FD
:1012600010B5024801F0F4F910BD0000B40E0010F2
:1012700010B5024801F0ECF910BD0000D40C0010CC
:1012800010B5024801F0E4F910BD0000140F001081
:1012900010B5024801F0DCF910BD0000340D00105B
:1012A0000146087810381823B0FBF3F20848805C38
:1012B000C865032A05D908686FF30900001D886511
:1012C00003E008686FF309008865886D70470000C7
:1012D00014330208014600208A6A8B69CBB932B107
:1012E000012A0DD0022A03D0032A10D10EE000BF3C
:1012F000CB6A03F08073B3F1807F00D1012007E057
:10130000CB6AB3F1C07F00D1012001E000E000BF53
:1013100034E08B69B3F5005F1AD132B1012A07D0EE
:10132000022A03D0032A11D10AE000BF01200EE0F7
:10133000CB6A03F08073B3F1807F00D1012006E017
:10134000CB6AB3F1C07F00D1012000E000BF15E0FF
:1013500032B1012A05D0022A04D0032A0CD103E0BD
:1013600000BF00BF012008E0CB6A03F08073B3F137
:10137000807F00D1012000E000BF00BF704730B582
:101380000468246824F4802405682C600468636081
:101390008468402C04D10468A2600468E16003E022
:1013A0000468A1600468E26030BD704700BF0E4968
:1013B0000E480BF05BFB0A2013F01CFA0C490B489B
:1013C0000BF054FB0A2013F015FA0A4907480BF0FA
:1013D0004DFB0A2013F00EFA074904480BF046FBB8
:1013E0000A2013F007FAE2E7EC0100206402002073
:1013F000F5010020FE0100200702002010B5014683
:10140000002226E002EB82040B6903EBC4000023F8
:10141000036043608360C360036243624FF0004334
:1014200003604FF48C434360436823F00043436000
:1014300001F1480343F82200032A07D202EB820499
:101440000B6903EBC4032833C36001E00B69C3607D
:10145000521C042AD6D30024CC650C668C66CC665C
:101460008C650B6803F580530C69DC6010BD10B50A
:101470000146002222E002EB8204CB6803EBC400A9
:101480000023036043608360C36001F1180343F8E5
:101490002200036843F480130360032A07D202EB9F
:1014A0008204CB6803EBC4032833C36001E0CB683C
:1014B000C360036843F440030360521C042ADAD378
:1014C00000248C620B6803F58053CC681C6110BD4E
:1014D00038B5044600200090206800F580508069EF
:1014E00040F48011206800F580508161206800F58B
:1014F000805080690090012001F08AFA00992068EC
:1015000000F58050816138BD10B5024801F01CFB28
:1015100010BD0000C859002030B503461479557934
:1015200044EA0520084C0C442064D47824069578BD
:1015300044EA0544557844EA0524157844EA050050
:10154000014C0C44606430BD0080024010B5A4B072
:10155000044601208DF83C008DF83D0000200D90E0
:101560008DF84B0001208DF84A0000208DF84800CE
:1015700001208DF8300000208DF84C008DF83B00E4
:1015800014908DF854001D908DF878001F908DF800
:1015900082008DF880004FF480401090C0101190B0
:1015A00000208DF881000BA9204600F095F901205C
:1015B0008DF80C008DF80D008DF81D008DF80E00D3
:1015C000002005908DF81C008DF81E000890012069
:1015D0008DF824008DF8040000040290800106902C
:1015E0004012049001208DF8250000200A90009000
:1015F0006946204600F010F924B010BD0020704765
:1016000010B502F04DF810BD10B5024801F09EFD76
:10161000002010BDC859002070B504460D4616467E
:1016200033462A462146044801F0C2FC10B14FF06F
:10163000FF3070BD0020FCE7C859002070B504469B
:101640000D46164633462A462146044801F0DBFE85
:1016500010B14FF0FF3070BD0020FCE7C8590020EA
:101660002DE9F04F80460C46164608F118031A691A
:10167000D3F810904FF0000C53F82210A568E24602
:10168000086800F00040B0F1004F04D003F11400EE
:1016900050F8220010B10220BDE8F08F0CF1010CCF
:1016A0002868886048686FF30C00D5F804B040EAF9
:1016B0000B004860207800F0010038B1086820F481
:1016C0004000D4F814B040EA0B000860207800F025
:1016D000200038B1086820F04060D4F810B040EA2B
:1016E0000B000860207800F0040018B1086840F092
:1016F00080000860086840F08050086000BF00BFAC
:1017000000BFBFF35F8F00BF00BF00BF086840F09D
:10171000004008605DE0086820F00050086026B1D5
:10172000086840F08040086003E0086820F08040CE
:10173000086000BF521C042A00D3121F00BF53F8D8
:101740002210086820F080500860086800F000400F
:10175000B0F1004F04D003F1140050F82200E8B1BA
:101760004A4653F82210002714E000BF00BF00BF14
:10177000BFF35F8F00BF00BF00BF086820F00040CC
:10178000086000BF521C042A00D3121F00BF53F888
:1017900022107F1C6745E8D302207DE70CF1010C85
:1017A000AD682868886048686FF30C00D5F804B00D
:1017B00040EA0B0048600AF1010A00BF00BF00BF09
:1017C000BFF35F8F00BF00BF00BF086840F000405C
:1017D0000860A86800289ED126B1086840F08040C3
:1017E000086003E0086820F080400860086840F066
:1017F0000050086003F11400D3F824B040F822B080
:101800001A6172B60AF10100D3F828B05844986200
:1018100062B6002040E7000070B505460C46286817
:1018200000F5805086692B480640207B08B90120CE
:1018300000E000208006617B40EA4160617F09B9D9
:10184000012100E0002140EA0150A17B40EA415023
:1018500061690843217F40EAC110A17F40EA8110FD
:10186000216A084394F8241040EA8100064328685E
:1018700000F580508661286800F580508669012057
:1018800001F0C6F8286800F5805086612179A068CB
:1018900040EA4160A16908432169084394F8251092
:1018A00040EAC110A16A40EA81002168084340F47F
:1018B0000001286800F580500160286800F580501C
:1018C0000668012001F0A4F8286800F58050066041
:1018D00070BD0000233FDEF870B505460C46286851
:1018E00006683A480640207C08B9012000E0002044
:1018F000C005617C09B9012100E0002140EA815066
:10190000A1680843E17F40EA014061690843A17F83
:1019100009B9012100E0002140EA4130217F40EA7D
:101920000130A1690843217940EA812094F8201010
:1019300009B9012100E0002140EA4120E17B40EAB1
:10194000C110616A084394F8281040EA0110064368
:101950002868066028680668012001F059F82868A0
:101960000660286886694FF641700640A06C000446
:1019700094F84C1009B9012100E0002140EAC1109F
:10198000216D084394F85510012900D100E0002191
:1019900040EAC10094F85610012900D100E000216E
:1019A00040EA810094F85410012900D100E00021A0
:1019B00040EA41000643286886612868866901205C
:1019C00001F026F82868866170BD00000F8120FFB5
:1019D0002DE9F8430446002000904FF00108A66E60
:1019E00004F1480050F82650E76E2FE0286A58B9F5
:1019F000684601F04FFB009810B94FF0000803E073
:101A0000009828620098A860B8F1000F1ED0A06D61
:101A100010B91648686002E04FF48C40686000BF5F
:101A200000BF00BFBFF35F8F00BF00BF00BF2868CB
:101A300040F00040286000BF761C042E00D3361F03
:101A400000BF04F1480050F826507F1E17B1B8F1CE
:101A5000000FCBD1E06EB84206D00021206800F51F
:101A600080508160A666E766BDE8F8830046008086
:101A700072B602E001A01FF0DDFDFBE74572726F58
:101A800072206F6363757265640D0A00704740F6DB
:101A9000B83012F0AFFE00BF13F0AAF8012012F028
:101AA000A9FEF9E703E042F2107012F0A3FE244809
:101AB000807A0028F7D000BF21200CF02BFE2220D6
:101AC0000CF028FE23200CF025FE24200CF022FE32
:101AD00025200CF01FFE26200CF01CFE27200CF009
:101AE00019FE28200CF016FE29200CF013FE2A20E7
:101AF0000CF010FE2B200CF00DFE1148C17AC07ABC
:101B0000401C0F4AD072502901DC012000E0002067
:101B10000B4988720846C07A602801DD552001E033
:101B20000748C07A0649C8720846817A0548C078D5
:101B300061F300000349C870322012F05BFEBBE77E
:101B4000F01A0010FE01002070B50A480468001D5C
:101B50000568001D0668344454B108220649204631
:101B600005F0AFF8042204491031284605F0A9F821
:101B700070BD0000107AFF1F5E00001010B5024615
:101B800092F82030012B01D0022B06D11068406959
:101B9000084314686061002010BD506A40F4802042
:101BA00050620120F8E7F0B504460D461E4694F851
:101BB000207020688368A86800B900E000BF012F8A
:101BC00001D0022F7CD103F0806030B903F00060B7
:101BD00018B903F08050002873D0C3F301610229C3
:101BE00005D9606A40F4000060620120F0BD012068
:101BF00088403060A86860B9B5F800C0E86840EA7D
:101C00004C5C206800F5C07000EB0110C0F800C00B
:101C10000FE0D5E901C040EACC00D5F80CC040EA9D
:101C20000C00D4F800C00CF5C07C0CEB011CCCF807
:101C30000000D5F810C0206800F5C07000EB01105E
:101C4000C0F804C0287D01280ED1206800F5C070BE
:101C500000EB0110406840F4807C206800F5C07003
:101C600000EB0110C0F804C0D079000692F806C05D
:101C700040EA0C4092F805C040EA0C2C10794CEA7E
:101C8000000C206800F5C07000EB0110C0F80CC01B
:101C9000D078000692F802C040EA0C4092F801C0E9
:101CA00040EA0C2092F800C040EA0C00D4F800C0D2
:101CB0000CF5C07C0CEB011CCCF80800206801E09E
:101CC00016E00FE000F5C07000EB0110006840F076
:101CD000010C206800F5C07000EB0110C0F800C0D6
:101CE000002083E7606A40F40010606201207DE715
:101CF000606A40F480206062012077E7F0B5044616
:101D00000A46216894F82050012D01D0022D7ED181
:101D1000424901F50071086840F001000860086858
:101D200020F47C5008600868566A40EA0620086083
:101D3000107D00F01F06012000FA06F3C8699843E1
:101D4000C861A1F50071D069C8B9D1F80C029843F7
:101D5000C1F80C02908880B2968940EA064601F5E7
:101D60001070576940F83760108880B2168940EAD1
:101D7000064601F51070576900EBC7004660D06950
:101D8000012819D1D1F80C021843C1F80C0290882F
:101D900080B2168840EA064601F51070576940F88F
:101DA0003760908980B2168940EA064601F51070C6
:101DB000576900EBC7004660906928B9D1F8040262
:101DC0009843C1F8040204E0D1F804021843C1F8B2
:101DD0000402106928B9D1F814029843C1F814021A
:101DE00004E0D1F814021843C1F81402106A012863
:101DF00004D1D1F81C021843C1F81C02D1F800022A
:101E000020F00100C1F800020020F0BDFFE7606A89
:101E100040F4802060620120F7E700000064004089
:101E2000704770B5044694F82050012D01D0022D62
:101E30007DD151B92068C06800F0030080B9606AA4
:101E400040F400106062012070BD2068006900F05D
:101E5000030028B9606A40F4001060620120F3E7D3
:101E6000206800F5D87000EB0110006800F0040055
:101E70009060906840B9206800F5D87000EB0110C0
:101E80000068400D106007E0206800F5D87000EB96
:101E900001100068C0085060206800F5D87000EBA1
:101EA0000110006800F00200D060206800F5D870D2
:101EB00000EB0110406800F00F001061206800F591
:101EC000D87000EB0110406800F47F40000A906178
:101ED000206800F5D87000EB01104068000C5061DC
:101EE000206800F5D87000EB011080681870206839
:101EF00000F5D87000EB0110806800F47F40000A04
:101F00005870206800F5D87000EB0110806800F46C
:101F10007F00000C9870206800F5D87000EB01106D
:101F20008068000ED870206800F5D87000E02FE0BF
:101F300000EB0110C0681871206800F5D87000EB44
:101F40000110C06800F47F40000A5871206800F555
:101F5000D87000EB0110C06800F47F00000C98718D
:101F6000206800F5D87000EB0110C068000ED87131
:101F700031B92068C06840F020002668F06005E0B4
:101F80002068006940F020002668306100205BE78F
:101F9000606A40F480206062012055E72DE9F05F1F
:101FA00004460025206846692068D0F8049020681F
:101FB00087682068D0F80CA02068D0F810B020689E
:101FC000D0F8188006F00100002855D007F0010075
:101FD000C0B101202168886007F0020018B12046D6
:101FE00000F0C5FA0EE007F0040010B145F40065FA
:101FF00008E007F0080010B145F4805502E02046E3
:1020000000F0B4FA07F48070C8B14FF48070216812
:10201000886007F4007018B1204600F0AAFA0EE0BC
:1020200007F4806010B145F4005508E007F4006043
:1020300010B145F4804502E0204600F099FA07F41B
:102040008030C8B14FF480302168886007F40030D8
:1020500018B1204600F08FFA0EE007F4802010B18E
:1020600045F4004508E007F4002010B145F4803540
:1020700002E0204600F07EFA06F0080038B10AF0CF
:10208000100020B145F4007510202168C86006F0EA
:10209000040040B10AF0080028B108202168C86097
:1020A000204600F00DFA06F0020038B12068C06842
:1020B00000F0030010B1204600F004FA06F04000E2
:1020C00038B10BF0100020B145F480651020216874
:1020D000086106F0200040B10BF0080028B108208C
:1020E00021680861204600F00FFA06F0100038B1B0
:1020F0002068006900F0030010B1204600F005FAE6
:1021000006F4003040B109F0100028B11020216819
:102110004860204600F0FAF906F4803040B109F03A
:10212000080028B1082021684860204600F024FA01
:1021300006F4004088B309F0040078B306F4807018
:1021400020B108F0010008B145F0010506F4007067
:1021500020B108F0020008B145F0020506F48060E5
:1021600020B108F0040008B145F0040506F4006051
:10217000A0B108F0700088B108F07000402817D0B6
:1021800006DC10280BD020280CD0302819D10CE008
:10219000502810D0602814D110E01DE019E045F05F
:1021A00008050FE045F010050CE045F0200509E0BA
:1021B00045F0400506E045F0800503E045F48075F4
:1021C00000E000BF00BF2068806920F07000216837
:1021D00088610420216848602DB1606A28436062EC
:1021E0002046FFF71DFEBDE8F09F70B504460CB910
:1021F000012070BD94F8200010B9204600F0B0F81E
:102200002068006840F001002168086001F048FA89
:1022100005460DE001F044FA401B0A2808D9606A1F
:1022200040F400306062052084F820000120E0E7DF
:102230002068406800F001000028EBD020680068AA
:1022400020F002002168086001F02AFA05460DE03E
:1022500001F026FA401B0A2808D9606A40F40030D1
:102260006062052084F820000120C2E720684068F1
:1022700000F002000028EBD1207E012806D1206862
:10228000006840F080002168086005E02068006870
:1022900020F0800021680860607E012806D1206857
:1022A000006840F040002168086005E02068006890
:1022B00020F0400021680860A07E012806D1206837
:1022C000006840F020002168086005E02068006890
:1022D00020F0200021680860E07E012806D12068F7
:1022E000006820F010002168086005E020680068A0
:1022F00040F0100021680860207F012806D1206886
:10230000006840F008002168086005E02068006867
:1023100020F0080021680860607F012806D120684D
:10232000006840F004002168086005E0206800684B
:1023300020F0040021680860D4E902010843216903
:102340000843616908436168491E08432168C86100
:1023500000206062012084F82000002049E700008E
:1023600010B586B00446142101A8FEF716F84E49B0
:102370002068884241D14D480068401C4B490860A4
:102380000846006801280FD100BF0020009048488F
:10239000006840F00070464908600846006800F098
:1023A0000070009000BF00BF00BF002000904048B8
:1023B0001038006840F008003D49103908600846B0
:1023C000006800F00800009000BF00BF03200190EB
:1023D0000220029000200390032004900920059021
:1023E00001A9344801F044F800220521142001F02D
:1023F000BFFE142001F0ACFE54E02F492068884253
:1024000050D100BF002000902948006840F0806053
:10241000274908600846006800F08060009000BF0F
:1024200000BF22480068401C204908600846006838
:1024300001280FD100BF002000901D48006840F027
:1024400000701B4908600846006800F000700090AA
:1024500000BF00BF00BF0020009015481038006882
:1024600040F002001249103908600846006800F088
:102470000200009000BF00BF602001900220029087
:1024800000200390032004900920059001A90B4827
:1024900000F0EEFF00220521402001F069FE4020FF
:1024A00001F056FE06B010BD0064004000000020A0
:1024B00040380240000C0240006800400004024026
:1024C0007047000010B504460C4B0D4A0021204611
:1024D000FFF7A7FC08B1FFF7CBFA094800780949D4
:1024E00008700748054902690648401CFDF72EFFA1
:1024F0000449087812F06EFD10BD00004F02002064
:10250000281B02201E1B022070477047704770B5C1
:10251000044694F82000012822D1022084F82000EB
:102520002068006820F001002168086001F0B8F818
:1025300005460DE001F0B4F8401B0A2808D9606A8E
:1025400040F400306062052084F82000012070BD56
:102550002068406800F001000028EBD16062F6E7D7
:10256000606A40F4002060620120F0E77047704725
:102570007047704770477047704770B50446A56D47
:1025800001F08EF8064694F83500022808D0802025
:10259000606500BF002084F8340000BF012070BDDA
:1025A0002068006820F016002168086020684069F3
:1025B00020F0800021684861206C08B9A06C28B127
:1025C0002068006820F00800216808602068006822
:1025D00020F001002168086010E001F061F8801B24
:1025E00005280BD920206065032084F8350000BF42
:1025F000002084F8340000BF0320D0E72068006882
:1026000000F001000028E8D194F85C103F208840D9
:10261000A860012084F8350000BF002084F8340051
:1026200000BF00BFBBE7014691F83500022803D088
:102630008020486501207047052081F83500086832
:10264000006820F001000A6810600020F3E7000035
:10265000F8B50446002000908C4800684FF41651ED
:10266000B0FBF1F7A56D2E6894F85C100820884047
:10267000304098B12068006800F0040070B1206814
:10268000006820F004002168086094F85C100820BD
:102690008840A860606D40F00100606594F85C10AF
:1026A00001208840304068B12068406900F0800017
:1026B00040B194F85C1001208840A860606D40F043
:1026C0000200606594F85C1004208840304068B1D6
:1026D0002068006800F0020040B194F85C1004200B
:1026E0008840A860606D40F00400606594F85C105C
:1026F00010208840304078B32068006800F008005F
:1027000050B394F85C1010208840A86020680068DE
:1027100000F4802080B12068006800F4002028B90F
:10272000206CC8B12046216C884715E0A06C98B198
:102730002046A16C88470FE02068006800F4807094
:1027400028B92068006820F0080021680860206C23
:1027500010B12046216C884794F85C1020208840F6
:102760003040002865D02068006800F01000002884
:102770005FD094F85C1020208840A86094F8350061
:10278000052828D12068006820F01600216808601C
:102790002068406920F0800021684861206C08B9F9
:1027A000A06C28B12068006820F00800216808604B
:1027B00094F85C103F208840A860012084F8350020
:1027C00000BF002084F8340000BF206D10B1204607
:1027D000216D8847F8BD2068006800F4802080B132
:1027E0002068006800F4002028B9606C10B1204611
:1027F000616C88471DE0E06BD8B12046E16B8847EB
:1028000017E02068006800F4807068B920680068EC
:1028100020F0100021680860012084F8350000BF16
:10282000002084F8340000BFE06B10B12046E16B5B
:102830008847606D38B3606D00F00100F0B105208D
:1028400084F835002068006820F0010021680860E5
:1028500000BF0098401C0090B84200D905E02068F5
:10286000006800F001000028F3D100BF012084F8C7
:10287000350000BF002084F8340000BFE06C10B1C8
:102880002046E16C884700BFA4E70000B0000010BC
:102890002DE9F0410446002500F002FF074614B977
:1028A0000120BDE8F081606A00B100BF022084F819
:1028B000350000BF002084F8340000BF20680068A5
:1028C00020F00100216808600AE000F0E9FEC01B6A
:1028D000052805D920206065032084F83500E0E74D
:1028E0002068006800F001000028EED1206805682B
:1028F00021480540D4E901010843E1680843216902
:10290000084361690843A1690843E1690843216AF2
:1029100008430543606A042803D1D4E90B01084346
:102920000543206805602068456925F00705606A51
:102930000543606A04280DD1A06A0543E06A48B1E6
:102940002046FEF7C7FC28B140206065012084F8CE
:102950003500A6E7206845612046FEF7A1FC064643
:1029600094F85C103F208840B06000206065012032
:1029700084F83500002094E73F8010F02DE9F047FF
:1029800004460D4616461F464FF00008D4F85890EE
:1029900000BF94F83400012802D10220BDE8F0877E
:1029A000012084F8340000BF94F83500012825D1B7
:1029B000022084F83500002060653B4632462946F7
:1029C0002046FEF7DCFC94F85C103F208840C9F8F4
:1029D00008002068006840F0160021680860206C3C
:1029E00028B12068006840F008002168086020686D
:1029F000006840F001002168086006E000BF002088
:102A000084F8340000BF4FF002084046C6E70000DB
:102A100070B5044600F044FE06462546681C10B119
:102A200004480078054400BF00F03AFE801BA8422D
:102A3000FAD370BDAC00001010B50446204600F07B
:102A40000BF800F08000802803D10248006812F0E3
:102A500041F810BD0C0000200146D1F88C007047F1
:102A6000024609B90120704710680068C0F30010E1
:102A700081F828001068006800F060004862106863
:102A80000068C0F3402080F0010081F82000106849
:102A90000068C0F30040C87710680068C0F3403099
:102AA00080F00100887710680068C0F30030087774
:102AB0001068006800F4006088611068006800F425
:102AC0008040486110680068C0F3805080F00100C9
:102AD000487410680068C0F3C05080F001000874AA
:102AE00010680068C0F3C010C8731068006800F474
:102AF0006020886010680068C0F38020087110684A
:102B00008069C0F3400081F8540010688069C0F308
:102B1000C01080F0010081F84C001068806900F05E
:102B20003000086510688069000C8864106880694E
:102B3000C0F3800081F8560010688069C0F3C000BF
:102B400081F8550000208EE710B50446206800F596
:102B50008050406900F0400040280FD1206800F507
:102B60008050C06900F04000402807D142492068E9
:102B700000F580504161204600F0B0FA206800F571
:102B80008050406900F0010078B1206800F5805065
:102B9000C06900F0010040B14FF00111206800F55C
:102BA00080504161204600F01DFC206800F58050F7
:102BB000406900F40040B0F5004F3DD1206800F5B9
:102BC0008050C06900F40040B0F5004F34D1D4F813
:102BD000880040F00800C4F88800206800F58050A4
:102BE000406900F40050B0F5005F15D1206800F591
:102BF0008050406921490840C4F88C00206800F5E5
:102C00008050C06920F4C031206800F58050C16157
:102C1000E020C4F884000CE0206800F58050406992
:102C200048F280610840C4F88C00206800F58050AC
:102C300041612046FFF700FF2068806B00F008002C
:102C400008280BD12068C06A00F06000C4F8940026
:102C5000204600F02BF90020C4F8940008480068D2
:102C600000F4002030B14FF40020054908602046F0
:102C700000F0C8FB10BD00004000010000207E00F5
:102C8000143C014038B504460CB9012038BDD4F8D5
:102C9000840028B92320C4F88400204600F05CF8A2
:102CA00000BF002000902A48006840F48040284976
:102CB00008600846006800F48040009000BF00BF34
:102CC0002448006820F40000224908600846006893
:102CD000A16808431F49086008460068206800F59D
:102CE0008050006840F00101206800F580500160CC
:102CF00000F0D6FC05460DE000F0D2FC401BB0F51C
:102D0000FA7F07D90420C4F88800E020C4F88400C2
:102D10000120BBE7206800F58050006800F001004A
:102D20000028E9D12046FEF711FC2046FEF79FFB64
:102D30002046FEF763FB002120466268FEF7ECFBAD
:102D40000020C4F888001020C4F8840000209DE70B
:102D5000443802400438014010B586B004461421BE
:102D600001A8FDF71AFB4C49206888427ED100BFBC
:102D700000BF002000904948006840F000704749BB
:102D800008600846006800F00070009000BF00BFB7
:102D900000BF002000900846006840F08060086096
:102DA0000846006800F08060009000BF00BF00BFD0
:102DB000002000900846006840F000600860084667
:102DC000006800F00060009000BF00BF00BF00BFBF
:102DD000002000900846006840F0040008600846A3
:102DE000006800F00400009000BF00BF00BF00209A
:102DF00000900846006840F001000860084600683E
:102E000000F00100009000BF00BF00BF0020009054
:102E10000846006840F0020008600846006800F0BC
:102E20000200009000BF00BF3220019002200290FB
:102E300000200390032004900B20059001A918485E
:102E400000F016FB862001900220029000200390E3
:102E5000032004900B20059001A9124800F008FB04
:102E60004FF4605001900220029000E011E0002039
:102E70000390032004900B20059001A90A4800F05C
:102E8000F7FA002205213D2001F072F93D2001F002
:102E90005FF906B010BD00000080024030380240EB
:102EA00000080240000002400004024070472DE983
:102EB000F05F04460F464FF00008C34647B9D4F808
:102EC000880040F00100C4F888000120BDE8F09FB0
:102ED000D4F88400232801D00120F7E7E66D04F13F
:102EE000480050F82650E06EC0F1040942E028681E
:102EF00000F4807018B1A969A167E9696167286861
:102F000000F4007008B9E06F40B3286800F4007066
:102F100010B1002121666166D4F814A0286800F47D
:102F2000807040B12868C0F30D40A0F1040A296800
:102F300021674FF0010BA86828621FFA8AF304F199
:102F40008001081F2A6A00F0D3F8206E401C20661A
:102F5000606E00EB0A0161660020286200BF761CEB
:102F6000042E00D3361F00BF04F1480050F826504D
:102F700008F10108286800F0004020B9C84502D2D5
:102F8000BBF1000FB3D0E06E00EB0801E166E06E2C
:102F900010B12046FEF71CFDE665BBF1010F05D11F
:102FA000E06F38600021E16700208FE701208DE7A6
:102FB0002DE9F04705460E461746984628680469ED
:102FC00004F01C044FF4784000EAC62004434FF498
:102FD000F86000EA8710044324F0020444F001047E
:102FE0002868046100F05CFB81460BE000F058FBB0
:102FF000A0EB0900B0F5803F02D30120BDE8F087C7
:103000002868046904F001000028EFD128684069AD
:1030100080B2C8F800000020F0E72DE9F04706462E
:1030200006F11804A76AE56A4FF001082AE04FF09C
:1030300001097F1E04F1140050F8250020B9681C16
:1030400000F003054FF00009B9F1000F1AD005EBAD
:103050008501F06850F8310000F0004080B904F1BB
:10306000140151F8250000F0C7F9002104F1140003
:1030700040F82510681C00F00305A762E56201E036
:103080004FF0000817B1B8F1000FD0D10020BDE813
:10309000F08700007CB504460D480FF01DFE054684
:1030A00085B105F1200020600A4828614FF4C06115
:1030B00020682B464122CDE900010021084612F08C
:1030C000D5FB04E0012004490870002020607CBD8D
:1030D000D0320208F95F01080800002010B504464C
:1030E0000248006811F0F6FC10BD00000C00002042
:1030F000F0B504460D4621462E460020A2F12000E0
:1031000000270760078143810F680FB9086001E05D
:10311000376838603060086803E007891F4407811A
:1031200000680028F9D1F0BD70B504460D460DB910
:10313000012070BDD4F88400102805D1294620460E
:10314000FEF7CAFB0020F4E70120F2E770B506465F
:103150003068056925F01C0502F026F8044613487E
:10316000844205D31248844202D245F008051AE091
:103170000F48844205D30F48844202D245F00C0523
:1031800011E00C48844203D30B48844200D20AE089
:103190000948844205D30948844202D245F0040517
:1031A00001E045F010053068056170BD002D31016A
:1031B000C00E16020087930300E1F50580D1F008E8
:1031C00070B50446D4F8840010285FD12320C4F8D9
:1031D00084000121A1652068C06B40F40270216861
:1031E000C8632068D0F80C01294908432168C1F858
:1031F0000C012068D0F8100140F403102168C1F8D8
:1032000010010421E1662046FEF7E2FB2068006819
:1032100040F0080021680860206805680120FFF779
:10322000F7FB206805602068006840F00400216812
:103230000860206805680120FFF7EAFB2068056048
:103240002046FEF745F9206800F58050806940F47B
:103250000051206800F580508161206800F58050A1
:10326000806940F00201206800F58050816120688B
:1032700000F58050C06907490843216801F5805175
:10328000C8612320C4F88400002070BD0120FCE741
:1032900060000200C1A001002DE9F0410446D4F80D
:1032A0008400232851D1C4F88400206800F58050A0
:1032B000C06927490840216801F58051C86120682C
:1032C00000F58050806920F40051206800F580509E
:1032D0008161206800F58050806920F0020120683B
:1032E00000F5805081612068006820F004002168AA
:1032F0000860206807680120FFF78AFB20680760E4
:103300002046FEF7E5F82068006820F008002168F4
:103310000860206807680120FFF77AFB20680760D3
:10332000002508E004F1480050F82560706840F07E
:10333000004070606D1C042DF4D30021A1651020A5
:10334000C4F884000020BDE8F0810120FBE7000004
:103350003E5FFEFF70B504460D463DB9D4F88800C7
:1033600040F00100C4F88800012070BDD4F884004A
:10337000232835D1696BE163012229462046FEF7F7
:103380006FF938B1D4F8880040F00200C4F8880022
:103390000120EAE700BF00BF00BFBFF34F8F00BFAF
:1033A00000BF00BF00BFA06A401CA062A06A042842
:1033B00002D3A06A001FA06200BF206800F5805001
:1033C000406900F0040048B10421206800F58050F5
:1033D00041610021206800F5805041600020C4E771
:1033E0000120C2E710B504460248006811F072FBE4
:1033F00010BD00001000002010B50446204612F059
:1034000027FD10BD70472DE9F04705460E461746CB
:1034100098462868046904F01C044FF4784000EAD8
:10342000C62004434FF4F86000EA8710044344F0D8
:10343000020444F001041FFA88F0296848612868F2
:10344000046100F02DF981460BE000F029F9A0EBB2
:103450000900B0F5803F02D30120BDE8F08728685D
:10346000046904F001000028EFD100BFF5E7000077
:10347000F8B502460B460025002400200021E0E0BC
:10348000012606FA01F51E6806EA0504AC4274D16D
:103490001E7906F00306012E04D01E7906F00306FD
:1034A000022E13D190684F000326BE40B0434F0058
:1034B000DE68BE4030439060506801268E40B043C5
:1034C0001E79C6F300168E40304350601E7906F018
:1034D0000306032E09D0D0684F000326BE40B04338
:1034E0004F009E68BE403043D0601E7906F0030650
:1034F000022E13D1CF0802F1200656F827004E07FE
:10350000F70E0F26BE40B0434F07FF0E1E69BE40A8
:103510003043CF0802F1200646F8270010684F001C
:103520000326BE40B0431E7906F003064F00BE409E
:10353000304310605E6806F44036002E1DD000BF98
:1035400000260096414E366846F480463F4F3E6066
:103550003E46366806F48046009600BF00BF3C4EEB
:103560008F0856F827008E07370F0F26BE40B0434E
:10357000384EB24202D100262EE061E0364EB24211
:1035800001D1012628E0354EB24201D1022623E0C6
:10359000334EB24201D103261EE0324EB24201D177
:1035A000042619E0304EB24201D1052614E02F4E18
:1035B000B24201D106260FE02D4EB24201D10726BC
:1035C0000AE02C4EB24201D1082605E02A4EB24252
:1035D00001D1092600E00A268F073F0FBE40304385
:1035E0001B4E8F0846F82700244E3068A0435E68C3
:1035F00006F4801606B12043204E3060361D306838
:10360000A0435E6806F4001606B120431B4E361D2B
:1036100030601A4E361F3068A0435E6806F40036EC
:1036200006B12043154E361F3060361F3068A04368
:103630005E6806F4803606B12043104E083E3060C6
:10364000491C1029FFF41CAFF8BD000044380240AB
:103650000838014000000240000402400008024017
:10366000000C02400010024000140240001802400A
:10367000001C02400020024000240240083C01409F
:1036800010B5426921EA020302EA010443EA044355
:10369000836110BD0AB1816101E00B048361704751
:1036A0000148006870470000A4000010024692F82C
:1036B0003D0020281ED1242082F83D0010680068BB
:1036C00020F00100136818601068406A20F01000B4
:1036D000136858621068406A08431368586210689B
:1036E000006840F0010013681860202082F83D0057
:1036F000002070470220FCE710B502460B4600216F
:1037000092F83D0020281DD1242082F83D00106849
:10371000006820F00100146820601068406A81B2DF
:1037200021F00F0141EA030081B210684162106884
:10373000006840F0010014682060202082F83D00FD
:10374000002010BD0220FCE7014691F83D007047C3
:1037500070B504460CB9012070BD94F83D0028B93D
:10376000002084F83C00204600F0E2FB242084F88E
:103770003D002068006820F0010021680860206892
:10378000006840F40040216808602068006820F468
:1037900000402168086001F00DFD05465C49606845
:1037A000884206D85B48854201D2012007E000200C
:1037B00005E05948854201D2012000E0002001289F
:1037C00000D1C9E75548B5FBF0F62068406820F005
:1037D0003F003043216848604D496068884201D805
:1037E000701C07E04FF4967070434FF47A71B0FB91
:1037F000F1F0401C2168096A21F03F01084321686B
:10380000086243496068884214D8681E61684900AC
:10381000B0FBF1F0401CC0F30B00042801D20420DF
:103820003DE0681E61684900B0FBF1F0401CC0F348
:103830000B0034E0A06838B9681E616801EB4101F3
:10384000B0FBF1F0401C0AE0681E616801EBC102A8
:1038500002EB0111B0FBF1F0401C40F48040C0F3DA
:103860000B0008B901201AE0A06848B9681E616819
:1038700001EB4101B0FBF1F0401CC0F30B000CE088
:10388000681E616801EBC10202EB0111B0FBF1F0AF
:10389000401CC0F30B0040F4804040F4004021681D
:1038A000C9694CF6FF72914308432168C861D4E9A5
:1038B000070108432168096821F0C0010843216815
:1038C0000860D4E9031008432168896848F2FF3290
:1038D0009143084321688860D4E9050108432168C1
:1038E000C96821F0FF0108432168C86020680068AA
:1038F00040F001002168086000202064202084F846
:103900003D000020206384F83E0000BF24E7000053
:10391000A086010080841E0000093D0040420F0087
:103920002DE9F84F04460F4690461E46FFF7B8FEB5
:1039300005464FF0000994F83D0020287ED1192358
:10394000012263492046009503F0A8F810B1022037
:10395000BDE8F88F00BF94F83C00012801D1022097
:10396000F6E7012084F83C0000BF2068006800F002
:10397000010028B92068006840F001002168086053
:103980002068006820F4006021680860242084F822
:103990003D00002020644F48E06200BF20680068BE
:1039A00040F4807021680860334600224FF0011116
:1039B0002046009503F072F858B12068006800F4C2
:1039C0008070B0F5807F02D14FF400702064032036
:1039D000BEE707F0FE0021680861FFF761FE0546BB
:1039E00020684069C0F3400A20684069C0F3802B1A
:1039F00010E0FFF755FE401BB04200D816B9A020DA
:103A000084F83D0020684069C0F3400A206840699E
:103A1000C0F3802B94F83D00A02805D0BAF1000F28
:103A200002D1BBF1000FE4D0202084F83D002068D3
:103A30004069C0F3400028B3206800E045E000681A
:103A400040F400702168086000BF002000902068EA
:103A50004069009020688069009000BF00BF192372
:103A600001221B492046009503F018F808B10120F7
:103A70006EE7202084F83D0000BF002084F83C0061
:103A800000BF65E72068006840F4007021680860A6
:103A90006FF4806021684861192301220C49204697
:103AA000009502F0FBFF08B1012051E709F101097F
:103AB000C145FFF473AF202084F83D0000BF002013
:103AC00084F83C0000BF012042E7022040E70000EC
:103AD000020010000000FFFF2DE9FC5F04460F46C6
:103AE00090469946DDE90CAB0E9EFFF7D9FD0546E1
:103AF00094F83D00202870D119230122B0492046B6
:103B0000009502F0CBFF10B10220BDE8FC9F00BF82
:103B100094F83C00012801D10220F6E7012084F846
:103B20003C0000BF2068006800F0010028B9206850
:103B3000006840F00100216808602068006820F4F7
:103B4000006021680860222084F83D00402084F84D
:103B50003E0000202064C4F824A0A4F82AB0608DA0
:103B600020859848E0624B46424639462046CDE9DA
:103B7000006502F045FE08B10120C6E7208D88B936
:103B800000BF002001902068406901902068806992
:103B9000019000BF00BF2068006840F400702168F9
:103BA000086040E0208D012818D12068006820F4CA
:103BB00080602168086000BF002001902068406993
:103BC000019020688069019000BF00BF20680068F4
:103BD00040F400702168086025E0EFE0208D0228A5
:103BE00016D12068006820F4806021680860206891
:103BF000006840F400602168086000BF0020019068
:103C000020684069019020688069019000BF0AE047
:103C100000BF002001902068406901902068806901
:103C2000019000BF00BFBAE0208D03287ED8208D10
:103C3000012815D12A463146204602F0D4FF08B1AA
:103C4000012062E720680069616A0870606A401CB0
:103C50006062208D401E2085608D401E60859EE044
:103C6000208D02282AD1334600225749204600954C
:103C700002F014FF08B1012047E72068006840F413
:103C800000702168086020680069616A0870606AD5
:103C9000401C6062208D401E2085608D401E608526
:103CA00020680069616A0870606A401C6062208D4B
:103CB000401E2085608D401E608570E033460022E6
:103CC00041492046009502F0E9FE08B101201CE7B9
:103CD0002068006820F4806021680860206800691E
:103CE000616A0870606A401C6062208D401E2085F9
:103CF000608D401E60853346002233492046009582
:103D000002F0CCFE08B10120FFE62068006840F414
:103D100000702168086020680069616A0870606A44
:103D2000401C6062208D401E208500E010E0608D08
:103D3000401E608520680069616A0870606A401CE6
:103D40006062208D401E2085608D401E608526E0CB
:103D50002A463146204602F046FF08B10120D4E64B
:103D600020680069616A0870606A401C6062208D8A
:103D7000401E2085608D401E608520684069C0F32C
:103D8000800060B120680069616A0870606A401C48
:103D90006062208D401E2085608D401E6085208DD4
:103DA00000287FF441AF202084F83D00002084F8F3
:103DB0003E0000BF84F83C0000BFA6E60220A4E657
:103DC000020010000000FFFF040001002DE9FC5F6D
:103DD00004460F4690469946DDE90CAB0E9EFFF770
:103DE0005FFC054694F83D0020287DD1192301226F
:103DF0004D492046009502F051FE10B10220BDE869
:103E0000FC9F00BF94F83C00012801D10220F6E796
:103E1000012084F83C0000BF2068006800F0010029
:103E200028B92068006840F0010021680860206817
:103E3000006820F4006021680860212084F83D00BB
:103E4000402084F83E0000202064C4F824A0A4F898
:103E50002AB0608D20853548E0624B46424639469F
:103E60002046CDE9006502F07BFD08B10120C6E7E0
:103E700031E02A463146204602F0F5FE50B1206C72
:103E8000042805D12068006840F4007021680860AB
:103E90000120B4E7606A007821680861606A401C0C
:103EA0006062208D401E2085608D401E60852068E8
:103EB0004069C0F3800070B1208D60B1606A007805
:103EC00021680861606A401C6062208D401E208568
:103ED000608D401E6085208D0028CAD12A4631465B
:103EE000204602F0ADFD00E01CE050B1206C04283B
:103EF00005D12068006840F4007021680860012046
:103F00007DE72068006840F4007021680860202088
:103F100084F83D00002084F83E0000BF84F83C0097
:103F200000BF6CE702206AE7020010000000FFFFFC
:103F300010B586B00446142101A8FCF72EFA2A49D0
:103F4000206888424DD100BF0020009027480068BB
:103F500040F00400254908600846006800F00400AD
:103F6000009000BF00BF00BF00200090084600681E
:103F700040F0010008600846006800F00100009071
:103F800000BF00BF4815019012200290002003904E
:103F9000032004900420059001A91548FFF768FA52
:103FA0004FF48070019012200290002003900320B3
:103FB00004900420059001A90E48FFF759FA00BFAC
:103FC0000020009009481030006840F400000749C4
:103FD000103108600846006800F40000009000BF3F
:103FE00000BF06B010BD0000005C00403038024049
:103FF00000080240000002400348006803490978B5
:104000000844014908607047A4000010AC0000108B
:1040100010B50D48006840F400700B490860084670
:10402000006840F4806008600846006840F48070D2
:104030000860032000F0DAF80F2000F007F800F025
:1040400055F8002010BD0000003C0240F0B587B0DC
:1040500004460026002700BF002000901E4800688C
:1040600040F001001C4908600846006800F00100AB
:10407000009000BF00BF01A902A801F073F801F091
:10408000A9F846001548B6FBF0F0471E144815493C
:10409000086040F2E7311348C160476000210161C8
:1040A0008160816101F04EFB054695B90D4801F034
:1040B0007DFB05466DB9192000F04AF8102C07D297
:1040C00000222146192000F053F80748046000E060
:1040D0000125284607B0F0BD4438024040420F0099
:1040E00000000140B4020020A800001008B500BF85
:1040F000002000901548006840F480401349086093
:104100000846006800F48040009000BF00BF00BF78
:1041100000200090081F006840F08050091F0860D0
:104120000846006800F08050009000BF00BF0022E9
:104130000F21901E00F01CF800220521512000F0F4
:1041400017F8512000F004F808BD00004438024080
:1041500001460846002809DB00F01F0301229A40AF
:1041600043099B0003F1E023C3F8002100BF70471F
:104170002DE9F05F80460D461646002706F078FFD1
:10418000074639462A46334601F00700C0F1070AC0
:10419000BAF1040F02D94FF0040A01E0C0F1070A96
:1041A000D14600F1040ABAF1070F02D24FF0000A1B
:1041B00001E0A0F1030AD4464FF0010A0AFA09FA15
:1041C000AAF1010A0AEA020A0AFA0CFA4FF0010BF4
:1041D0000BFA0CFBABF1010B0BEA030B4AEA0B04E5
:1041E0002146404606F04CFFBDE8F09F00BF00F0BE
:1041F0000702064B19684FF6FF031940044B0B43A7
:1042000043EA0221014B196000BF70470CED00E04A
:104210000000FA05704702461068416200207047AE
:10422000F0B5034615461868446A21B944EA0540CA
:104230001E68B06219E01868806A04EB104400221E
:1042400008E0186800F5827050F8220004EB104472
:10425000501CC2B2481E9042F3D844EA0547186881
:1042600000F582704E1E40F826700020F0BD10B59B
:104270000446D4F8080505F03CF910BD70B50446B5
:104280000D4605EBC50304F13C0101EB83010A690E
:104290002946D4F8080505F027F870BD70B5044626
:1042A0000D4605EBC50304F51F7101EB83010A6997
:1042B0002946D4F8080505F09BF870BD10B50446F2
:1042C000D4F8080505F018F910BD2DE9F0410446B1
:1042D0000D4605F08000802808D105F00F0000EBA6
:1042E000C00104F13C0000EB810607E005F00F007F
:1042F00000EBC00104F51F7000EB81063146206819
:1043000006F0ECFB07463846BDE8F08170B5044680
:104310000E4606F0800080280AD106F00F0000EB60
:10432000C00104F13C0000EB81050120687009E048
:1043300006F00F0000EBC00104F51F7000EB8105D3
:104340000020687006F00F00287000BF94F8BC04CD
:10435000012801D1022070BD012084F8BC0400BFF7
:104360002946206805F09AFE00BF002084F8BC04AE
:1043700000BF00BFEFE770B504460E4606F00F0021
:104380006168884201D9012070BD06F08000802854
:104390000AD106F00F0000EBC00104F13C0000EB75
:1043A00081050120687009E006F00F0000EBC001F4
:1043B00004F51F7000EB8105002068700020A870D4
:1043C00006F00F00287000BF94F8BC04012801D14A
:1043D0000220D9E7012084F8BC0400BF29462068E8
:1043E00006F044F900BF002084F8BC0400BF00BF01
:1043F000CAE7024601F00F0000EBC00302F51F7090
:1044000000EB8300006A70472DE9F04705460E4631
:1044100090461F464FF0000906F0800080280AD120
:1044200006F00F0000EBC00105F13C0000EB810439
:104430000120607009E006F00F0000EBC00105F5F7
:104440001F7000EB81040020607006F00F002070E8
:10445000C4F80C802771607808B120782081022F81
:1044600001D10020607100BF95F8BC04012802D181
:104470000220BDE8F087012085F8BC0400BF21467A
:10448000286805F021FD00BF002085F8BC0400BFAE
:104490004846EEE72DE9F04104460E461746984699
:1044A00006F00F0000EBC00104F51F7000EB810562
:1044B0002F61C5F8188000202862687006F00F0090
:1044C00028702069012800D16F6106F00F0028B91B
:1044D000227C2946206805F0A3FF04E0227C2946BF
:1044E000206806F057F90020BDE8F08170B5044659
:1044F0000D4605F00F006168884201D9012070BDAA
:1045000005F0800080280AD105F00F0000EBC00103
:1045100004F13C0000EB81060120707007E005EB20
:10452000C50104F51F7000EB8106002070700120AA
:10453000B07005F00F00307000BF94F8BC04012883
:1045400001D10220DBE7012084F8BC0400BF314622
:10455000206806F0D2F805F00F0028B9217C04F29B
:10456000C442206806F04AF800BF002084F8BC046A
:1045700000BF00BFC3E72DE9F04104460E461746D1
:10458000984606F00F0000EBC00104F13C0000EB80
:1045900081052F61C5F8188000202862012068700D
:1045A00006F00F0028702069012800D16F6106F025
:1045B0000F0028B9227C2946206805F031FF04E06D
:1045C000227C2946206806F0E5F80020BDE8F0814D
:1045D0002DE9FE4F0446D4F800B05E46206806F090
:1045E00064FB002874D1206806F09EFB08B9BDE882
:1045F000FE8F40F608008059C0F30D20C4F8FC047B
:10460000206806F091FB00F00200022805D1206826
:10461000406900F0020021684861206806F084FBD0
:1046200000F01000102845D12068806920F01000AB
:1046300021688861DBF8209009F00F0000EBC001D1
:1046400004F51F7000EB810AC9F3434002281AD118
:1046500047F6F07009EA000030B3C9F30A12584671
:10466000DAF8101006F065FBC9F30A11DAF8100049
:104670000844CAF81000C9F30A11DAF82000084407
:10468000CAF8200010E0C9F3434006280CD10822E4
:1046900004F2C441584606F04CFBC9F30A11DAF89B
:1046A00020000844CAF820002068806940F010000B
:1046B00021688861206806F037FB00F40020B0F51F
:1046C000002F7BD10025206806F0FEFA029072E0F0
:1046D000E1E2029800F00100002868D0E9B2206809
:1046E00006F015FB804608F0010048B1012106F5EF
:1046F000306000EB451081602946204603F0D6F873
:1047000008F00800082809D1082106F5306000EB00
:10471000451081602946204603F096F808F0100005
:10472000102805D1102106F5306000EB451081609E
:1047300008F00200022824D1DBF8140000F0800009
:10474000802807D140F60400805940F4806140F68B
:104750000400815105EBC50104F51F7000EB810ACF
:104760009AF80300012806D100208AF80300E9B274
:10477000204600F09BFA022106F5306000EB451060
:10478000816008F02000202805D1202106F5306046
:1047900000EB4510816008F40050B0F5005F06D1D1
:1047A0004FF4005106F5306000EB451081606D1C40
:1047B000029840080290029800288AD1206806F0EA
:1047C000B3FA00F48020B0F5802F7DD1206806F088
:1047D00071FA029000259AE0029800F0010000288A
:1047E00073D0E9B2206806F079FA804608F001003B
:1047F000F0B305F00F0101208840019040F634002D
:104800008159019821EA000040F6340188510121C4
:1048100006F5106000EB451081602069012824D165
:1048200005EBC50104F13C0000EB810005EBC5027E
:10483000016904F13C0000EB8200C068014405EB13
:10484000C50204F13C0000EB820001616DB905EB8B
:10485000C50104F13C0000EB8100806928B904F235
:10486000C4420121206805F0C9FEE9B2204600E0FB
:1048700001E0FFF703FD08F00800082805D1082132
:1048800006F5106000EB4510816008F0100010285C
:1048900005D1102106F5106000EB4510816008F08D
:1048A0004000402805D1402106F5106000EB45107E
:1048B000816008F0020002281DD12946584606F002
:1048C000B5F905EBC50101E025E01CE004F13C0071
:1048D00000EB810A9AF80300012806D100208AF82B
:1048E0000300E9B2204600F0D8F9022106F5106075
:1048F00000EB4510816008F08000802803D1294634
:10490000204603F075F86D1C02984008029002984A
:1049100000287FF461AF206806F006FA00F000403E
:10492000B0F1004F1CD140F60400805920F0010185
:1049300040F60400815194F8F404012807D10020C6
:1049400084F8F40400212046FFF764FC02E02046CE
:1049500000F0D4FA2068406900F000402168486106
:10496000206806F0E1F900F40060B0F5006F0ED1A8
:1049700040F60800805900F0010010B1204600F018
:1049800015FB2068406900F40060216848612068D8
:1049900006F0CAF900F48050B0F5805F7ED140F691
:1049A0000400805920F0010140F6040081511021DB
:1049B000206806F03BF9002732E04FF67F3106F51C
:1049C000106000EB4710816006F5106000EB4710A7
:1049D000006820F4001106F5106000EB471001603C
:1049E0004FF67F3106F5306000EB4710816006F529
:1049F000306000EB4710006820F4001106F53060CD
:104A000000EB4710016006F5306000EB47100068CE
:104A100040F0006106F5306000EB471001607F1C3C
:104A20006068B842C9D840F61C00805940F00111B6
:104A300040F61C008151206B70B1D6F8840840F01C
:104A40000B01C6F8841840F64400805940F00B0171
:104A500040F6440081510FE040F61400805942F2C4
:104A60002B01084340F614018851081F805940F07B
:104A70000B014FF401608151D6F8000820F4FE606C
:104A8000C6F80008217C04F2C442206805F0B6FD97
:104A90002068406900F48050216800E000E048612F
:104AA000206806F041F900F40050B0F5005F17D11E
:104AB000206805F071FA206806F0E4F8E06000F084
:104AC00073FB0090227B2068009906F0B5F9204620
:104AD00000F0FCF92068406900F40050216848614A
:104AE000206806F021F900F00800082808D12046C7
:104AF00000F00BFA2068406900F008002168486166
:104B0000206806F011F900F08000802818D1DBF849
:104B1000180020F08000CBF8180001250DE005EB0F
:104B2000C50104F51F7000EB8100C078012803D196
:104B3000E9B22046FFF7C9FB6D1C6068A842EED8B9
:104B4000206806F0F1F800F48010B0F5801F2DD138
:104B5000012522E006F5106000EB4510D0F800902A
:104B600005EBC50104F13C0000EB81000079012850
:104B700012D109F00040B0F1004F0DD1012105EB39
:104B8000C50204F13C0000EB8200C170E8B240F0C5
:104B900080012046FFF799FB6D1C6068A842D9D8B8
:104BA0002068406900F4801021684861206806F0A0
:104BB000BBF800F40010B0F5001F44D1012538E027
:104BC00006F5306000EB4510D0F8009005EBC5010C
:104BD00004F51F7000EB81000079012828D109F04D
:104BE0000040B0F1004F23D109F4803094F8FC1458
:104BF00001F0010188421BD1012105EBC50204F53A
:104C00001F7000EB8200C170DBF8180040F08000DC
:104C1000CBF81800DBF8140000F0800040B940F633
:104C20000400805940F4007140F60400815103E013
:104C30006D1C6068A842C3D800BF2068406900F4BA
:104C4000001021684861206806F06EF800F080408E
:104C5000B0F1804F08D12046FFF709FB206840697A
:104C600000F0804021684861206806F05DF800F09F
:104C7000040004280FD12068D0F8049009F0040043
:104C8000042802D12046FFF719FB2068406840EA5B
:104C900009002168486000BFA9E470B504460D46CC
:104CA0002946D4F8080504F093FC70BD70B504469D
:104CB0000D462946D4F8080504F0AEFC70BD70B569
:104CC0008AB0044614B901200AB070BD266894F871
:104CD000BD0428B9002084F8BC04204600F0A2F8E6
:104CE000032084F8BD04F06B00F4807008B9002143
:104CF0002161206805F08CFB282204F11001684630
:104D0000FBF724FB94E80F0005F05AF920B10220CC
:104D100084F8BD040120D7E70021206806F039F8A7
:104D2000002531E0012105EBC50204F13C0000EB58
:104D30008200417005EBC50104F13C0000F82150F0
:104D400005EBC50100EB81000581002105EBC502E3
:104D500004F13C0000EB8200017105EBC50204F197
:104D60003C0000EB8200C16005EBC50204F13C0091
:104D700000EB8200016105EBC50204F13C0000EB91
:104D800082008161681CC5B26068A842CAD800254B
:104D90002AE0002105EBC50204F51F7000EB82003C
:104DA000417005EBC50104F51F7000F8215000218A
:104DB00005EBC50200EB8200017105EBC50204F5AD
:104DC0001F7000EB8200C16005EBC50204F51F7087
:104DD00000EB8200016105EBC50204F51F7000EBDA
:104DE00082008161681CC5B26068A842D1D82822BF
:104DF00004F110016846FBF7A9FA94E80F0005F0EA
:104E000017FA20B1022084F8BD0401205CE70020DD
:104E100084F83800012084F8BD04206805F0F6F914
:104E2000002051E710B586B00446142101A8FBF715
:104E3000B4FA2068B0F1A04F42D100BF002000902A
:104E40002048006840F001001E49086008460068DC
:104E500000F00100009000BF00BF4FF4C05001906F
:104E60000220029000200390032004900A20059065
:104E700001A91548FEF7FCFA00BF1248001D0068A2
:104E800040F080000F49091D086000BF002000901D
:104E90000C481430006840F480400A49143108601E
:104EA0000846006800F48040009000BF00BF00BFCB
:104EB000002205214320FFF75BF94320FFF748F963
:104EC00006B010BD303802400000024070B5044604
:104ED0000125E06808B9002506E0E068022801D154
:104EE000012501E0FCF7C4FD2946D4F8080504F0CB
:104EF0003CFCD4F8080504F0E3FB70BD10B5044693
:104F0000D4F8080504F012FC10BD10B50446D4F81E
:104F1000080504F016FC10BD70B504460D4600BF30
:104F200094F8BC04012801D1022070BD012084F84E
:104F3000BC0400BF84F838502946206805F05DFFA6
:104F400000BF002084F8BC0400BF00BFEDE710B52F
:104F5000044604F2C441D4F8080504F01DFC10BD59
:104F600070B50446256800BF94F8BC04012801D13F
:104F7000022070BD012084F8BC0400BFA06A012893
:104F800006D1A069012803D0A86B40F48030A86343
:104F9000206805F019FE206805F026F900BF002002
:104FA00084F8BC0400BF00BFE3E7000010B504466E
:104FB000D4F8080504F04DFC2068D0F8000E40F04D
:104FC00001002168C1F8000E206A28B1034800687A
:104FD00040F006000149086010BD000010ED00E03F
:104FE00070B504460D460CB9012070BD58480068E4
:104FF00000F00F00A84209D255490D70084600681C
:1050000000F00F00A84201D00120EEE7207800F068
:10501000020002281DD1207800F00400042805D1E8
:105020004C48006840F4E0504A490860207800F09D
:105030000800082805D14748006840F46040454909
:1050400008604448006820F0F000A1680843414926
:105050000860207800F00100A8B36068012807D13B
:105060003C4808380068C0F34040B8B90120BCE7AC
:105070006068022802D06068032807D135480838E4
:105080000068C0F3406048B90120AEE731480838F5
:105090000068C0F3400008B90120A6E72D48006869
:1050A00020F00300616808432A490860FEF7F8FA17
:1050B000064609E0FEF7F4FA801B41F28831884287
:1050C00002D9032091E707E02248006800F00C00B5
:1050D0006168B0EB810FEDD11D48006800F00F0052
:1050E000A84209D91A490D700846006800F00F005F
:1050F000A84201D0012078E7207800F004000428BD
:1051000007D11448006820F4E050E16808431149D1
:105110000860207800F00800082808D10D480068D1
:1051200020F46040216940EAC1000A49086000F0AB
:1051300061F808490968C1F30311074A515CC84086
:105140000649086006480068FEF780FF00204CE72B
:10515000003C0240083802401C330208B000001036
:10516000A80000100F2202600D4A126802F003022C
:1051700042600B4A126802F0F0028260084A12682C
:1051800002F4E052C260064A126802F46042D20899
:105190000261044A126802F00F020A6070470000C0
:1051A00008380240003C0240014800687047000097
:1051B000B000001000B5FFF7F7FF04490968C1F31C
:1051C0008221034A515CC84000BD000008380240FB
:1051D0002C33020800B5FFF7E7FF04490968C1F363
:1051E0004231034A515CC84000BD0000083802400B
:1051F0002C3302082DE9F047002400250026A146A3
:105200002548006800F00C0020B1042805D00828CB
:105210003AD105E0DFF8849039E0DFF8849036E099
:105220001D48001F006800F03F041B48001F006875
:1052300000F4800078B11A481749091F0968C1F3C2
:105240008811A0FB01700146224600233846FBF777
:105250002BF805460EE011480F49091F0968C1F3F4
:105260008811A0FB01700146224600233846FBF757
:105270001BF805460848001F0068C0F30140401CA9
:105280004600B5FBF6F902E0DFF8109000BF00BF62
:105290004846BDE8F0870000083802400024F400CA
:1052A00040787D01F8B504460CB90120F8BD20789E
:1052B00000F00100002874D0F948006800F00C00EC
:1052C00004280DD0F648006800F00C00082813D11F
:1052D000F348001F006800F48000B0F5800F0BD188
:1052E000EF4808380068C0F34040002859D0606893
:1052F000002856D10120D9E700BF6068B0F5803F93
:1053000008D1E7480838006840F48030E44908399B
:1053100008601EE06068B0F5A02F0DD1E0480838A5
:10532000006840F48020DE490839086008460068BB
:1053300040F4803008600CE0D9480838006820F458
:105340008030D749083908600846006820F480207A
:10535000086000BF606890B1FEF7A2F9054606E05C
:10536000FEF79EF9401B642801D903209EE7CC4834
:1053700008380068C0F340400028F1D011E0FEF783
:105380008FF9054606E0FEF78BF9401B642801D92A
:1053900003208BE7C24808380068C0F3404000286B
:1053A000F1D1207800F0020002285FD1BC480068EB
:1053B00000F00C0058B1BA48006800F00C00082852
:1053C0001CD1B748001F006800F48000B0B9B44891
:1053D00008380068C0F3400020B1E068012801D01F
:1053E000012063E7AE480838006820F0F800216922
:1053F00040EAC100AA490839086037E0E06800B314
:105400000120A8490860FEF74BF9054606E0FEF7C3
:1054100047F9401B022801D9032047E7A048083874
:105420000068C0F340000028F1D09D4808380068AB
:1054300020F0F800216940EAC10099490839086064
:1054400014E0002097490860FEF72AF9054606E0B7
:10545000FEF726F9401B022801D9032026E79048D1
:1054600008380068C0F340000028F1D1207800F02F
:10547000080008282CD16069A8B101208A49086079
:10548000FEF70EF9054606E0FEF70AF9401B022872
:1054900001D903200AE782486C300068C0F340005D
:1054A0000028F1D014E000207F490860FEF7F8F8EA
:1054B000054606E0FEF7F4F8401B022801D9032058
:1054C000F4E677486C300068C0F340000028F1D162
:1054D000207800F00400042870D10027704838308C
:1054E000006800F0805090B900BF002000906C4828
:1054F0003830006840F0805069493831086008460B
:10550000006800F08050009000BF00BF012767488E
:10551000006800F48070B0B96448006840F480709E
:1055200062490860FEF7BCF8054606E0FEF7B8F8E9
:10553000401B022801D90320B8E65C48006800F44B
:1055400080700028F2D000BFA068012808D154481C
:105550006830006840F001005149683108601DE082
:10556000A06805280DD14E486830006840F004005E
:105570004B49683108600846006840F00100086047
:105580000CE047486830006820F001004449683169
:1055900008600846006820F00400086000BFA068AA
:1055A000A8B1FEF77DF8054609E0FEF779F8401B43
:1055B00041F28831884202D9032077E626E0384854
:1055C00068300068C0F340000028EED013E0FEF71A
:1055D00067F8054608E0FEF763F8401B41F28831A2
:1055E000884201D9032061E62D4868300068C0F385
:1055F00040000028EFD1012F07D12948383000683A
:1056000020F0805026493831086000BFA06900288A
:1056100045D02348006800F00C0008285DD0A06940
:10562000022845D100201F490866FEF739F80546D3
:1056300006E0FEF735F8401B022801D9032035E6C5
:10564000174808380068C0F340600028F1D1D4E959
:1056500007010843616A40EA81110122A06AC2EB96
:10566000500041EA00412C20005D41EA00600C49F5
:10567000091F086001200B490866FEF711F805466E
:1056800006E0FEF70DF8401B022801D903200DE6C5
:10569000034808380068C0F340600028F1D049E0B2
:1056A0000838024000004742800E47420070004028
:1056B000002021490866FDF7F3FF054606E0FDF7E7
:1056C000EFFF401B022801D90320EFE51B480068CB
:1056D000C0F340600028F2D12CE0A069012800D17D
:1056E000E4E51648001D0668A069012820D006F4EC
:1056F0008001E06981421BD106F03F01206A8142AE
:1057000016D147F6C0703040616AB0EB811F0FD1EF
:1057100006F440310122A06AC2EB5000B1EB004F09
:1057200006D106F070612C20005DB1EB006F01D056
:105730000120BBE50020B9E50000474200380240E7
:105740007047704710B504460CB9012010BD94F89D
:105750003D0028B9002084F83C00204600F025F8E0
:10576000022084F83D00211D206802F0AFFA0120DC
:1057700084F8460000BF84F83E0001213F20015517
:10578000402001554120015500BF00BF012084F891
:10579000420043200155442001554520015500BFDA
:1057A000012084F83D000020D0E77047014691F8C1
:1057B0003D00012801D001207047022081F83D0002
:1057C0000868C06840F001000B68D8601A4B086890
:1057D00098421BD00868B0F1804F17D0174B08686B
:1057E000984213D0164B086898420FD0154B0868A2
:1057F00098420BD0144B0868984207D0134B0868A6
:10580000984203D0124B086898420CD1086880680F
:1058100000F00702062A0CD00868006840F001007A
:105820000B68186005E00868006840F001000B682C
:1058300018600020C0E700000000014000040040A4
:1058400000080040000C00400004014000400140FE
:1058500000180040704710B5044620680069C0F386
:105860004000D8B12068C068C0F34000B0B16FF00C
:10587000020021680861012020772068806900F01B
:10588000030018B12046FFF7E5FF05E0204600F0D1
:10589000ADF8204600F0ABF80020207720680069C2
:1058A000C0F38000D8B12068C068C0F38000B0B1F8
:1058B0006FF0040021680861022020772068806969
:1058C00000F4407018B12046FFF7C4FF05E0204601
:1058D00000F08CF8204600F08AF80020207720683D
:1058E0000069C0F3C000D8B12068C068C0F3C00030
:1058F000B0B16FF0080021680861042020772068AB
:10590000C06900F0030018B12046FFF7A3FF05E0CF
:10591000204600F06BF8204600F069F80020207760
:1059200020680069C0F30010D8B12068C068C0F3D7
:105930000010B0B16FF010002168086108202077D6
:105940002068C06900F4407018B12046FFF782FF5C
:1059500005E0204600F04AF8204600F048F8002014
:1059600020772068006900F0010058B12068C06805
:1059700000F0010030B16FF001002168086120469D
:1059800000F036F820680069C0F3C01058B12068F4
:10599000C068C0F3C01030B16FF0800021680861AA
:1059A0002046FFF7CDFE20680069C0F3801058B193
:1059B0002068C068C0F3801030B16FF040002168EB
:1059C0000861204600F020F820680069C0F340100C
:1059D00058B12068C068C0F3401030B16FF02000AB
:1059E000216808612046FFF7ACFE10BD7047704784
:1059F00010B5044603492068884201D1FEF7FCFA3D
:105A000010BD0000000001407047F8B504460E4686
:105A1000174694F83E00202836D106B10FB9012070
:105A2000F8BD00BF94F83C00012801D10220F7E73F
:105A3000012084F83C0000BF20633A4631462046EE
:105A400002F056FC0546EDB9206B012819D100BFC4
:105A50000020009020680068009020684068009056
:105A600000BF00BF00BF00BF21680C3151E8001F1C
:105A700041F0100021680C3141E80002002AF3D106
:105A800000E001252846CBE70220C9E770B50546AE
:105A90000E46002411E040F21920604308490844F2
:105AA000D0F80100A84206D140F219216143044A0E
:105AB000881805F059FA601CC4B2082CEBDB70BDE5
:105AC000041C022070B50446002520684069C0F31C
:105AD000C01594F83D00212817D1B5B100BF00BF13
